:100000000C9434000C9451000C9451000C94510049
:100010000C9451000C9451000C9451000C9451001C
:100020000C9451000C9451000C9451000C9451000C
:100030000C9451000C9451000C9451000C945100FC
:100040000C9451000C9451000C9451000C945100EC
:100050000C9451000C9451000C9451000C945100DC
:100060000C9451000C94510011241FBECFEFD8E026
:10007000DEBFCDBF11E0A0E0B1E0E8E1F1E002C0F9
:1000800005900D92A030B107D9F711E0A0E0B1E0E2
:1000900001C01D92A030B107E1F70E9482000C94CC
:1000A0008A000C9400008FE387B98CEF8AB983E053
:1000B00084B980EC88B9459A439A0895449A449843
:1000C0000895459A459808950E9461000E945E0037
:1000D000089568B9982F990F990F9BB982958695C5
:1000E0008695837085B9673011F418B808956F5FED
:1000F00068B90895882311F443980895813009F46C
:10010000439A08950E945300459885E560E00E9457
:080110006900FFCFF894FFCF56
:00000001FF
